{
  "contractName": "Campaign",
  "abi": [
    {
      "inputs": [
        {
          "internalType": "uint256",
          "name": "minimum",
          "type": "uint256"
        },
        {
          "internalType": "address",
          "name": "creator",
          "type": "address"
        }
      ],
      "stateMutability": "nonpayable",
      "type": "constructor"
    },
    {
      "inputs": [
        {
          "internalType": "address",
          "name": "",
          "type": "address"
        }
      ],
      "name": "approvers",
      "outputs": [
        {
          "internalType": "bool",
          "name": "",
          "type": "bool"
        }
      ],
      "stateMutability": "view",
      "type": "function",
      "constant": true
    },
    {
      "inputs": [],
      "name": "approversCount",
      "outputs": [
        {
          "internalType": "uint256",
          "name": "",
          "type": "uint256"
        }
      ],
      "stateMutability": "view",
      "type": "function",
      "constant": true
    },
    {
      "inputs": [],
      "name": "manager",
      "outputs": [
        {
          "internalType": "address",
          "name": "",
          "type": "address"
        }
      ],
      "stateMutability": "view",
      "type": "function",
      "constant": true
    },
    {
      "inputs": [],
      "name": "minimumContribution",
      "outputs": [
        {
          "internalType": "uint256",
          "name": "",
          "type": "uint256"
        }
      ],
      "stateMutability": "view",
      "type": "function",
      "constant": true
    },
    {
      "inputs": [
        {
          "internalType": "uint256",
          "name": "",
          "type": "uint256"
        }
      ],
      "name": "requests",
      "outputs": [
        {
          "internalType": "string",
          "name": "description",
          "type": "string"
        },
        {
          "internalType": "uint256",
          "name": "value",
          "type": "uint256"
        },
        {
          "internalType": "address payable",
          "name": "recipient",
          "type": "address"
        },
        {
          "internalType": "bool",
          "name": "complete",
          "type": "bool"
        },
        {
          "internalType": "uint256",
          "name": "approvalCount",
          "type": "uint256"
        }
      ],
      "stateMutability": "view",
      "type": "function",
      "constant": true
    },
    {
      "inputs": [],
      "name": "contribute",
      "outputs": [],
      "stateMutability": "payable",
      "type": "function",
      "payable": true
    },
    {
      "inputs": [
        {
          "internalType": "string",
          "name": "description",
          "type": "string"
        },
        {
          "internalType": "uint256",
          "name": "value",
          "type": "uint256"
        },
        {
          "internalType": "address payable",
          "name": "recipient",
          "type": "address"
        }
      ],
      "name": "createRequest",
      "outputs": [],
      "stateMutability": "nonpayable",
      "type": "function"
    },
    {
      "inputs": [
        {
          "internalType": "uint256",
          "name": "index",
          "type": "uint256"
        }
      ],
      "name": "approveRequest",
      "outputs": [],
      "stateMutability": "nonpayable",
      "type": "function"
    },
    {
      "inputs": [
        {
          "internalType": "uint256",
          "name": "index",
          "type": "uint256"
        }
      ],
      "name": "finalizeRequest",
      "outputs": [],
      "stateMutability": "nonpayable",
      "type": "function"
    },
    {
      "inputs": [],
      "name": "getRequestsCount",
      "outputs": [
        {
          "internalType": "uint256",
          "name": "",
          "type": "uint256"
        }
      ],
      "stateMutability": "view",
      "type": "function",
      "constant": true
    }
  ],
  "bytecode": "0x60806040523480156200001157600080fd5b50604051620011bc380380620011bc83398181016040528101906200003791906200012b565b806000806101000a81548173ffffffffffffffffffffffffffffffffffffffff021916908373ffffffffffffffffffffffffffffffffffffffff16021790555081600181905550505062000172565b600080fd5b6000819050919050565b620000a0816200008b565b8114620000ac57600080fd5b50565b600081519050620000c08162000095565b92915050565b600073ffffffffffffffffffffffffffffffffffffffff82169050919050565b6000620000f382620000c6565b9050919050565b6200010581620000e6565b81146200011157600080fd5b50565b6000815190506200012581620000fa565b92915050565b6000806040838503121562000145576200014462000086565b5b60006200015585828601620000af565b9250506020620001688582860162000114565b9150509250929050565b61103a80620001826000396000f3fe6080604052600436106100915760003560e01c806382fde0931161005957806382fde093146101935780638a9cfd55146101be578063937e09b1146101e7578063d7bb99ba14610212578063d7d1bbdb1461021c57610091565b806303441006146100965780630a144391146100bf5780633410452a146100fc578063481c6a751461012757806381d12c5814610152575b600080fd5b3480156100a257600080fd5b506100bd60048036038101906100b89190610803565b610245565b005b3480156100cb57600080fd5b506100e660048036038101906100e1919061088e565b61038d565b6040516100f391906108d6565b60405180910390f35b34801561010857600080fd5b506101116103ad565b60405161011e9190610900565b60405180910390f35b34801561013357600080fd5b5061013c6103ba565b604051610149919061092a565b60405180910390f35b34801561015e57600080fd5b5061017960048036038101906101749190610803565b6103de565b60405161018a9594939291906109f6565b60405180910390f35b34801561019f57600080fd5b506101a86104d9565b6040516101b59190610900565b60405180910390f35b3480156101ca57600080fd5b506101e560048036038101906101e09190610bb1565b6104df565b005b3480156101f357600080fd5b506101fc6105e6565b6040516102099190610900565b60405180910390f35b61021a6105ec565b005b34801561022857600080fd5b50610243600480360381019061023e9190610803565b61066c565b005b60008054906101000a900473ffffffffffffffffffffffffffffffffffffffff1673ffffffffffffffffffffffffffffffffffffffff163373ffffffffffffffffffffffffffffffffffffffff161461029d57600080fd5b6000600282815481106102b3576102b2610c20565b5b9060005260206000209060050201905060026003546102d29190610cad565b8160030154116102e157600080fd5b8060020160149054906101000a900460ff16156102fd57600080fd5b8060020160009054906101000a900473ffffffffffffffffffffffffffffffffffffffff1673ffffffffffffffffffffffffffffffffffffffff166108fc82600101549081150290604051600060405180830381858888f1935050505015801561036b573d6000803e3d6000fd5b5060018160020160146101000a81548160ff0219169083151502179055505050565b60046020528060005260406000206000915054906101000a900460ff1681565b6000600280549050905090565b60008054906101000a900473ffffffffffffffffffffffffffffffffffffffff1681565b600281815481106103ee57600080fd5b906000526020600020906005020160009150905080600001805461041190610d0d565b80601f016020809104026020016040519081016040528092919081815260200182805461043d90610d0d565b801561048a5780601f1061045f5761010080835404028352916020019161048a565b820191906000526020600020905b81548152906001019060200180831161046d57829003601f168201915b5050505050908060010154908060020160009054906101000a900473ffffffffffffffffffffffffffffffffffffffff16908060020160149054906101000a900460ff16908060030154905085565b60035481565b60008054906101000a900473ffffffffffffffffffffffffffffffffffffffff1673ffffffffffffffffffffffffffffffffffffffff163373ffffffffffffffffffffffffffffffffffffffff161461053757600080fd5b6000600260018160018154018082558091505003906000526020600020906005020190508381600001908161056c9190610eea565b50828160010181905550818160020160006101000a81548173ffffffffffffffffffffffffffffffffffffffff021916908373ffffffffffffffffffffffffffffffffffffffff16021790555060008160020160146101000a81548160ff0219169083151502179055506000816003018190555050505050565b60015481565b60015434116105fa57600080fd5b6001600460003373ffffffffffffffffffffffffffffffffffffffff1673ffffffffffffffffffffffffffffffffffffffff16815260200190815260200160002060006101000a81548160ff0219169083151502179055506003600081548092919061066590610fbc565b9190505550565b60006002828154811061068257610681610c20565b5b90600052602060002090600502019050600460003373ffffffffffffffffffffffffffffffffffffffff1673ffffffffffffffffffffffffffffffffffffffff16815260200190815260200160002060009054906101000a900460ff166106e857600080fd5b8060040160003373ffffffffffffffffffffffffffffffffffffffff1673ffffffffffffffffffffffffffffffffffffffff16815260200190815260200160002060009054906101000a900460ff161561074157600080fd5b60018160040160003373ffffffffffffffffffffffffffffffffffffffff1673ffffffffffffffffffffffffffffffffffffffff16815260200190815260200160002060006101000a81548160ff0219169083151502179055508060030160008154809291906107b090610fbc565b91905055505050565b6000604051905090565b600080fd5b600080fd5b6000819050919050565b6107e0816107cd565b81146107eb57600080fd5b50565b6000813590506107fd816107d7565b92915050565b600060208284031215610819576108186107c3565b5b6000610827848285016107ee565b91505092915050565b600073ffffffffffffffffffffffffffffffffffffffff82169050919050565b600061085b82610830565b9050919050565b61086b81610850565b811461087657600080fd5b50565b60008135905061088881610862565b92915050565b6000602082840312156108a4576108a36107c3565b5b60006108b284828501610879565b91505092915050565b60008115159050919050565b6108d0816108bb565b82525050565b60006020820190506108eb60008301846108c7565b92915050565b6108fa816107cd565b82525050565b600060208201905061091560008301846108f1565b92915050565b61092481610850565b82525050565b600060208201905061093f600083018461091b565b92915050565b600081519050919050565b600082825260208201905092915050565b60005b8381101561097f578082015181840152602081019050610964565b60008484015250505050565b6000601f19601f8301169050919050565b60006109a782610945565b6109b18185610950565b93506109c1818560208601610961565b6109ca8161098b565b840191505092915050565b60006109e082610830565b9050919050565b6109f0816109d5565b82525050565b600060a0820190508181036000830152610a10818861099c565b9050610a1f60208301876108f1565b610a2c60408301866109e7565b610a3960608301856108c7565b610a4660808301846108f1565b9695505050505050565b600080fd5b600080fd5b7f4e487b7100000000000000000000000000000000000000000000000000000000600052604160045260246000fd5b610a928261098b565b810181811067ffffffffffffffff82111715610ab157610ab0610a5a565b5b80604052505050565b6000610ac46107b9565b9050610ad08282610a89565b919050565b600067ffffffffffffffff821115610af057610aef610a5a565b5b610af98261098b565b9050602081019050919050565b82818337600083830152505050565b6000610b28610b2384610ad5565b610aba565b905082815260208101848484011115610b4457610b43610a55565b5b610b4f848285610b06565b509392505050565b600082601f830112610b6c57610b6b610a50565b5b8135610b7c848260208601610b15565b91505092915050565b610b8e816109d5565b8114610b9957600080fd5b50565b600081359050610bab81610b85565b92915050565b600080600060608486031215610bca57610bc96107c3565b5b600084013567ffffffffffffffff811115610be857610be76107c8565b5b610bf486828701610b57565b9350506020610c05868287016107ee565b9250506040610c1686828701610b9c565b9150509250925092565b7f4e487b7100000000000000000000000000000000000000000000000000000000600052603260045260246000fd5b7f4e487b7100000000000000000000000000000000000000000000000000000000600052601260045260246000fd5b7f4e487b7100000000000000000000000000000000000000000000000000000000600052601160045260246000fd5b6000610cb8826107cd565b9150610cc3836107cd565b925082610cd357610cd2610c4f565b5b828204905092915050565b7f4e487b7100000000000000000000000000000000000000000000000000000000600052602260045260246000fd5b60006002820490506001821680610d2557607f821691505b602082108103610d3857610d37610cde565b5b50919050565b60008190508160005260206000209050919050565b60006020601f8301049050919050565b600082821b905092915050565b600060088302610da07fffffffffffffffffffffffffffffffffffffffffffffffffffffffffffffffff82610d63565b610daa8683610d63565b95508019841693508086168417925050509392505050565b6000819050919050565b6000610de7610de2610ddd846107cd565b610dc2565b6107cd565b9050919050565b6000819050919050565b610e0183610dcc565b610e15610e0d82610dee565b848454610d70565b825550505050565b600090565b610e2a610e1d565b610e35818484610df8565b505050565b5b81811015610e5957610e4e600082610e22565b600181019050610e3b565b5050565b601f821115610e9e57610e6f81610d3e565b610e7884610d53565b81016020851015610e87578190505b610e9b610e9385610d53565b830182610e3a565b50505b505050565b600082821c905092915050565b6000610ec160001984600802610ea3565b1980831691505092915050565b6000610eda8383610eb0565b9150826002028217905092915050565b610ef382610945565b67ffffffffffffffff811115610f0c57610f0b610a5a565b5b610f168254610d0d565b610f21828285610e5d565b600060209050601f831160018114610f545760008415610f42578287015190505b610f4c8582610ece565b865550610fb4565b601f198416610f6286610d3e565b60005b82811015610f8a57848901518255600182019150602085019450602081019050610f65565b86831015610fa75784890151610fa3601f891682610eb0565b8355505b6001600288020188555050505b505050505050565b6000610fc7826107cd565b91507fffffffffffffffffffffffffffffffffffffffffffffffffffffffffffffffff8203610ff957610ff8610c7e565b5b60018201905091905056fea2646970667358221220cbfedec4446125f2fd72638041a993a453ca0ab50e44f2a7d5aa3067980d15cc64736f6c63430008130033",
  "immutableReferences": {},
  "source": "// SPDX-License-Identifier: GPL-3.0\r\n\r\npragma solidity >=0.5.0 <0.9.0;\r\n\r\n    //to create many projects\r\ncontract CampaignFactory{\r\n\r\n     address[] public deployedCampaigns;\r\n    function createCampaign(uint minimum) public{\r\n        address newCampaign = address(new Campaign(minimum,msg.sender));\r\n        deployedCampaigns.push(newCampaign);\r\n    }\r\n    function getDeployedCampaign() public view returns (address[] memory){\r\n        return deployedCampaigns;\r\n    }\r\n}\r\n    //contract for single campaign\r\ncontract Campaign{\r\n\r\n    //structure for the Requester,who asks for fund.\r\n    struct Request{\r\n        string description;\r\n        uint value;\r\n        address payable recipient;\r\n        bool complete;\r\n        uint approvalCount;\r\n        mapping(address => bool) approvals;// votes in favour\r\n    }\r\n    address public manager;\r\n    uint public minimumContribution;\r\n    Request[] public requests;\r\n    uint public approversCount; //how many people total voted\r\n    mapping(address => bool) public approvers;\r\n\r\n    //contructor for initialisation\r\n    constructor(uint minimum,address creator){\r\n        manager = creator;\r\n        minimumContribution = minimum;\r\n    }\r\n    //fuction for the contributors to make donation.\r\n    function contribute() public payable{\r\n        //donation must be greater then minimum value\r\n        require(msg.value > minimumContribution);\r\n        // contributor added to approvers array\r\n        approvers[msg.sender] = true;\r\n        approversCount++;\r\n    }\r\n\r\n        modifier restricted(){ //means only manager can approve or is authorised\r\n        require(msg.sender == manager); //condition that should be true to run below statements\r\n        _;\r\n        }\r\n\r\n    //function to create request\r\n    function createRequest( string memory description, uint value, address payable recipient) public restricted{\r\n        //\"modifier restricted\" implemented\r\n        // Request memory newRequest = Request({\r\n        //     description: description,\r\n        //     value: value,\r\n        //     recipient: recipient,\r\n        //     complete: false,\r\n        //     approvalCount: 0\r\n        // });\r\n\r\n        // requests.push(newRequest);\r\n         Request storage newRequest = requests.push();\r\n         newRequest.description = description;\r\n         newRequest.value = value;\r\n         newRequest.recipient = recipient;\r\n         newRequest.complete = false;\r\n         newRequest.approvalCount =0;\r\n    }\r\n\r\n    //which project should be approved\r\n    function approveRequest(uint index) public {\r\n        Request storage request = requests[index];\r\n        require(approvers[msg.sender]); //is authorised\r\n        require(!request.approvals[msg.sender]); //should have not voted before\r\n\r\n        request.approvals[msg.sender]=true;\r\n        request.approvalCount++;\r\n    }\r\n\r\n    //to Finalsize whom the money or funds will be given\r\n    function finalizeRequest(uint index) public restricted{\r\n        Request storage request = requests[index];\r\n        require(request.approvalCount > (approversCount /2));  //majority votes\r\n        require(!request.complete); //fund is not yet transfered\r\n\r\n        request.recipient.transfer(request.value);\r\n        request.complete = true;\r\n    }\r\n\r\n    function getRequestsCount() public view returns (uint){\r\n        return requests.length;\r\n    }\r\n}",
  "sourcePath": "C:\\Users\\pande\\Projects\\CrowdFunding new\\ethereum\\contracts\\Campaign.sol",
  "compiler": {
    "name": "solc",
    "version": "0.8.19+commit.7dd6d404.Emscripten.clang"
  },
  "schemaVersion": "3.4.13",
  "updatedAt": "2023-03-24T11:45:39.411Z",
  "networkType": "ethereum",
  "devdoc": {
    "kind": "dev",
    "methods": {},
    "version": 1
  },
  "userdoc": {
    "kind": "user",
    "methods": {},
    "version": 1
  }
}